:020000040800F2
:100000000000022029290008E1090008E70900088A
:10001000ED090008F3090008F909000800000000D4
:10002000000000000000000000000000FF090008C0
:100030000D0A0008000000001B0A0008290A000839
:100040007929000879290008792900087929000808
:100050007929000879290008350A0008792900085B
:1000600079290008792900087929000879290008E8
:1000700079290008792900087929000879290008D8
:1000800079290008792900087929000879290008C8
:1000900079290008792900087929000879290008B8
:1000A000450A0008590A00086D0A0008810A00087C
:1000B0007929000879290008792900087929000898
:1000C0007929000879290008792900087929000888
:1000D0007929000879290008792900087929000878
:1000E0007929000879290008792900087929000868
:1000F0007929000879290008792900087929000858
:100100007929000879290008792900087929000847
:100110007929000879290008792900087929000837
:100120007929000879290008792900087929000827
:100130007929000879290008792900087929000817
:100140007929000879290008792900087929000807
:1001500079290008792900087929000879290008F7
:1001600079290008792900087929000879290008E7
:100170007929000879290008792900080000000081
:08018000792900087929000823
:1001900010B5054C237833B9044B13B10448AFF3C1
:1001A00000800123237010BD7000002000000000BB
:1001B0003C32000808B5034B1BB103490348AFF3B9
:1001C000008008BD00000000740000203C320008E0
:1001D00001F0FF01102A2BDB10F0070F08D010F8F8
:1001E000013B013A8B422DD010F0070F42B3F6D1FC
:1001F000F0B441EA012141EA014122F007047FF015
:1002000000070023F0E80256083C85EA010586EA6B
:10021000010685FA47F5A3FA87F586FA47F6A5FAA7
:1002200087F68EB9EED1F0BC01F0FF0102F00702B3
:1002300032B110F8013B013A83EA010313B1F8D15E
:100240000020704701387047002D06BF354603383F
:10025000073815F0010F07D1013015F4807F02BF78
:10026000013015F4C03F0130F0BC0138704700BFC9
:1002700053B94AB9002908BF00281CBF4FF0FF310D
:100280004FF0FF3000F07AB9ADF1080C6DE904CE03
:1002900000F006F8DDF804E0DDE9022304B0704761
:1002A0002DE9F0478C460D460446089E002B51D19F
:1002B0008A4217466DD9B2FA82FEBEF1000F0BD00A
:1002C000CEF1200C01FA0EF520FA0CFC02FA0EF722
:1002D0004CEA050C00FA0EF44FEA174A250CBCFB59
:1002E000FAF81FFA87F90AFB18CC45EA0C4508FB17
:1002F00009F3AB420AD9ED1908F1FF3280F02381EE
:10030000AB4240F22081A8F102083D44ED1AA4B2AC
:10031000B5FBFAF00AFB105544EA054400FB09F965
:10032000A14509D9E41900F1FF3380F00A81A14504
:1003300040F2078102383C44A4EB090440EA08403B
:100340000021002E61D024FA0EF400233460736083
:10035000BDE8F0878B4207D9002E54D0002186E8F3
:1003600021000846BDE8F087B3FA83F1002940F088
:100370008E80AB4202D3824200F2FA80841A65EB8F
:1003800003050120AC46002E3FD086E81010BDE8E2
:10039000F08712B90127B7FBF2F7B7FA87FEBEF173
:1003A000000F34D1EB1B3A0C1FFA87FC0121B3FB81
:1003B000F2F8250C02FB183345EA03450CFB08F361
:1003C000AB4207D9ED1908F1FF3002D2AB4200F27F
:1003D000D1808046ED1AA3B2B5FBF2F002FB1055B6
:1003E00043EA05440CFB00FCA44507D9E41900F1DD
:1003F000FF3302D2A44500F2B8801846A4EB0C04E7
:1004000040EA08409DE731463046BDE8F087CEF12E
:10041000200405FA0EF307FA0EF720FA04F83A0C56
:1004200025FA04F448EA0308B4FBF2F14FEA184550
:1004300002FB11441FFA87FC45EA044501FB0CF35B
:10044000AB4200FA0EF409D9ED1901F1FF3080F04A
:100450008A80AB4240F2878002393D44EB1A1FFA92
:1004600088F5B3FBF2F002FB103345EA034500FBCD
:100470000CF3AB4207D9ED1900F1FF386FD2AB4254
:100480006DD902383D44EB1A40EA01418FE7C1F1D2
:10049000200722FA07F88B4005FA01F448EA030323
:1004A00020FA07FE4FEA134CFD404EEA040EB5FB5E
:1004B000FCF94FEA1E440CFB19551FFA83F844EA75
:1004C000054509FB08F4AC4202FA01F200FA01FA10
:1004D00008D9ED1809F1FF3043D2AC4241D9A9F156
:1004E00002091D442D1B1FFA8EFEB5FBFCF00CFB10
:1004F00010554EEA054400FB08F8A04507D9E4185A
:1005000000F1FF3529D2A04527D902381C4440EA22
:100510000940A4EB0804A0FB02894C45C6464D46A1
:1005200015D312D056B1BAEB0E0364EB050404FAEE
:1005300007F7CB401F43CC40376074600021BDE813
:10054000F0871846F8E69046E0E6C245EAD2B8EBF6
:10055000020E69EB03050138E4E72846D7E7404679
:1005600091E78146BEE7014678E702383C4445E71B
:10057000084608E7A8F102083D442BE7704700BF92
:1005800080B500AF00F0C4FA00F008F800F0E8F819
:1005900000F0BCF800F06AF8FEE7000080B594B007
:1005A00000AF07F1200330220021184602F010FAB4
:1005B00007F10C0300221A605A609A60DA601A612F
:1005C0000023BB60274A274B1B6C43F08053136406
:1005D000244B1B6C03F08053BB60BB6800237B6023
:1005E000214A214B1B6843F4804313601E4B1B6858
:1005F00003F480437B607B6802233B620123FB6240
:1006000010233B630223BB630023FB6308233B648B
:1006100060237B640623BB640423FB6407F120038F
:10062000184600F0C1FD0346002B01D000F024F96C
:100630000F23FB6002233B6100237B614FF4805357
:10064000BB610023FB6107F10C030121184601F097
:1006500023F80346002B01D000F00EF900BF5037FD
:10066000BD4680BD003802400070004080B586B0B5
:1006700000AF07F1080300221A605A609A60DA603E
:100680003B4600221A605A601E4B1F4A1A601D4BDF
:100690004FF4FA425A601B4B00229A60194B6422B5
:1006A000DA60184B00221A61164B00225A61154B72
:1006B00000229A61134801F0BFF90346002B01D0D4
:1006C00000F0DAF84FF48053BB6007F108031946D5
:1006D0000C4801F0A8FB0346002B01D000F0CCF839
:1006E00000233B6000237B603B461946054801F030
:1006F000B3FD0346002B01D000F0BEF800BF183751
:10070000BD4680BDDC0000200000014080B500AF88
:10071000114B124A1A60104B4FF416525A600E4B8E
:1007200000229A600C4B0022DA600B4B00221A6107
:10073000094B08225A61084B00229A61064B00229D
:10074000DA61054801F018FE0346002B01D000F0E5
:1007500093F800BF80BD00BF98000020001001404A
:1007600080B586B000AF3B1D00221A605A609A60C7
:10077000DA601A6100233B60114A114B1B6B43F096
:10078000010313630E4B1B6B03F001033B603B68DB
:1007900001237B600B4BBB600023FB603B1D1946B4
:1007A000094800F037FB00220021062000F0FBFA88
:1007B000062000F014FB00BF1837BD4680BD00BF07
:1007C00000380240000011100000024080B584B0E3
:1007D00000AF0346FB80094BFB60FB88012B08D16F
:1007E000FB6893F83D30DBB2012B02D1034801F0E6
:1007F00073F900BF1037BD4680BD00BFDC0000208C
:1008000080B586B000AF78600121164800F09CFCEE
:100810000346012B22D17B681B685B6A013B0A2BD4
:1008200019D97B681B685B6A9BB2013B9BB20E4A7D
:10083000A2FB0323DB08FB820C49FB8A1A4607F163
:100840000C03184602F0CCF807F10C010F230A2222
:10085000074801F0DEFD074801F0AEF900BF183788
:10086000BD4680BD00000240CDCCCCCC5432000847
:1008700098000020DC00002080B400AF72B6FEE7D4
:1008800080B483B000AF00237B60104A0F4B5B6CD9
:1008900043F4804353640D4B5B6C03F480437B60F3
:1008A0007B6800233B60094A084B1B6C43F0805374
:1008B0001364064B1B6C03F080533B603B6800BF26
:1008C0000C37BD465DF8047B704700BF003802401E
:1008D00080B584B000AF78607B681B681A4A934289
:1008E0002DD10023FB60194A184B5B6C43F00103C8
:1008F0005364164B5B6C03F00103FB60FB68002242
:100900000021182000F04FFA182000F068FA0022A9
:100910000021192000F047FA192000F060FA0022A7
:1009200000211A2000F03FFA1A2000F058FA0022A5
:1009300000211B2000F037FA1B2000F050FA00BF06
:100940001037BD4680BD00BF0000014000380240A6
:1009500080B58AB000AF786007F1140300221A60F6
:100960005A609A60DA601A617B681B68194A934280
:100970002CD100233B61184A174B5B6C43F01003EA
:100980005364154B5B6C03F010033B613B69002320
:10099000FB60114A104B1B6B43F0010313630E4BBA
:1009A0001B6B03F00103FB60FB684FF4C0637B61CA
:1009B0000223BB610023FB6103233B6207237B62AD
:1009C00007F114031946054800F024FA00BF283740
:1009D000BD4680BD001001400038024000000240CA
:1009E00080B400AFFEE780B400AFFEE780B400AF94
:1009F000FEE780B400AFFEE780B400AFFEE780B44E
:100A000000AF00BFBD465DF8047B704780B400AF07
:100A100000BFBD465DF8047B704780B400AF00BFE7
:100A2000BD465DF8047B704780B500AF00F0C2F8AA
:100A300000BF80BD80B500AF012000F09DFB00BF6E
:100A400080BD000080B500AF024801F0E4F800BFAF
:100A500080BD00BFDC00002080B500AF024801F07F
:100A6000DAF800BF80BD00BFDC00002080B500AF19
:100A7000024801F0D0F800BF80BD00BFDC000020BC
:100A800080B500AF024801F0C6F800BF80BD00BFCE
:100A9000DC00002080B584B000AF7860114B1B688B
:100AA000002B02D10F4B104A1A600E4B1B68FB60E3
:100AB0000C4B1A687B6813446A46934207D901F0CD
:100AC0005DFF02460C2313604FF0FF3306E0054B39
:100AD0001A687B681344034A1360FB681846103792
:100AE000BD4680BD8C0000202C01002080B400AFEA
:100AF000064A064BD3F8883043F47003C2F88830B6
:100B000000BFBD465DF8047B704700BF00ED00E00C
:100B100080B500AF0E4A0E4B1B6843F400731360A0
:100B20000B4A0B4B1B6843F480631360084A084B65
:100B30001B6843F480731360032000F029F9002040
:100B400000F008F8FFF79CFE0023184680BD00BFA8
:100B5000003C024080B582B000AF7860124B1A684A
:100B6000124B1B7819464FF47A73B3FBF1F3B2FBC7
:100B7000F3F3184600F041F90346002B01D001239E
:100B80000EE07B680F2B0AD8002279684FF0FF3007
:100B900000F009F9064A7B681360002300E0012396
:100BA00018460837BD4680BD000000200800002020
:100BB0000400002080B400AF064B1B781A46064B99
:100BC0001B681344044A136000BFBD465DF8047BF4
:100BD000704700BF080000202401002080B400AF4F
:100BE000034B1B681846BD465DF8047B704700BF89
:100BF0002401002080B485B000AF78607B6803F0EA
:100C00000703FB600C4BDB68BB60BA684FF6FF0361
:100C10001340BB60FB681A02BB68134343F0BF6319
:100C200043F40033BB60044ABB68D36000BF143791
:100C3000BD465DF8047B704700ED00E080B400AF76
:100C4000044BDB681B0A03F007031846BD465DF83A
:100C5000047B704700ED00E080B483B000AF034632
:100C6000FB7197F90730002B0BDB094997F9073027
:100C70005B09FA7902F01F02012000FA02F241F842
:100C8000232000BF0C37BD465DF8047B704700BFD2
:100C900000E100E080B483B000AF03463960FB712F
:100CA00097F90730002B0ADB0D4997F907303A68AE
:100CB000D2B21201D2B20B4483F800230AE00949F0
:100CC000FB7903F00F03043B3A68D2B21201D2B2AF
:100CD0000B441A7600BF0C37BD465DF8047B7047A5
:100CE00000E100E000ED00E080B489B000AFF86002
:100CF000B9607A60FB6803F00703FB61FB69C3F12D
:100D00000703042B28BF0423BB61FB690433062BB4
:100D100002D9FB69033B00E000237B610122BB6930
:100D200002FA03F35A1EBB681A407B699A400121FC
:100D30007B6901FA03F3591E7B680B401343184685
:100D40002437BD465DF8047B7047000080B582B053
:100D500000AF78607B68013BB3F1807F01D3012352
:100D60000FE00A4A7B68013B53600F214FF0FF30D0
:100D7000FFF790FF054B00229A60044B07221A6090
:100D8000002318460837BD4680BD00BF10E000E0D4
:100D900080B582B000AF78607868FFF72BFF00BFA6
:100DA0000837BD4680BD80B586B000AF0346B96048
:100DB0007A60FB7300237B61FFF740FF78617A68FC
:100DC000B9687869FFF790FF024697F90F3011462E
:100DD0001846FFF75FFF00BF1837BD4680BD80B5DE
:100DE00082B000AF0346FB7197F907301846FFF752
:100DF00033FF00BF0837BD4680BD80B582B000AF6D
:100E000078607868FFF7A2FF034618460837BD46AA
:100E100080BD000080B489B000AF786039600023E5
:100E20007B6100233B610023BB610023FB616BE11D
:100E30000122FB6902FA03F37B613B681A687B6954
:100E400013403B613A697B699A4240F05A813B68A2
:100E50005B6803F00303012B05D03B685B6803F07C
:100E60000303022B30D17B689B68BB61FB695B008D
:100E7000032202FA03F3DB43BA691340BB613B6808
:100E8000DA68FB695B0002FA03F3BA691343BB61DA
:100E90007B68BA699A607B685B68BB610122FB6909
:100EA00002FA03F3DB43BA691340BB613B685B683A
:100EB0001B0903F00102FB6902FA03F3BA69134349
:100EC000BB617B68BA695A603B685B6803F00303E7
:100ED000032B17D07B68DB68BB61FB695B000322D7
:100EE00002FA03F3DB43BA691340BB613B689A68BB
:100EF000FB695B0002FA03F3BA691343BB617B68C9
:100F0000BA69DA603B685B6803F00303022B23D104
:100F1000FB69DA087B68083253F82230BB61FB6951
:100F200003F007039B000F2202FA03F3DB43BA69C5
:100F30001340BB613B681A69FB6903F007039B0020
:100F400002FA03F3BA691343BB61FB69DA087B68F1
:100F50000832B96943F822107B681B68BB61FB69E2
:100F60005B00032202FA03F3DB43BA691340BB615F
:100F70003B685B6803F00302FB695B0002FA03F362
:100F8000BA691343BB617B68BA691A603B685B68E6
:100F900003F08053002B00F0B4800023FB605F4A15
:100FA0005E4B5B6C43F4804353645C4B5B6C03F4BB
:100FB0008043FB60FB685A4AFB699B08023352F886
:100FC0002330BB61FB6903F003039B000F2202FA8D
:100FD00003F3DB43BA691340BB617B68514A934218
:100FE0002BD07B68504A934225D07B684F4A93426E
:100FF0001FD07B684E4A934219D07B684D4A93427A
:1010000013D07B684C4A93420DD07B684B4A934285
:1010100007D07B684A4A934201D107230EE0082398
:101020000CE006230AE0052308E0042306E003237E
:1010300004E0022302E0012300E00023FA6902F049
:10104000030292009340BA691343BB613449FB69C0
:101050009B080233BA6941F823203A4B1B68BB61F5
:101060003B69DB43BA691340BB613B685B6803F4CF
:101070008033002B03D0BA693B691343BB61314A0B
:10108000BB6913602F4B5B68BB613B69DB43BA698B
:101090001340BB613B685B6803F40033002B03D053
:1010A000BA693B691343BB61264ABB695360254B50
:1010B0009B68BB613B69DB43BA691340BB613B681A
:1010C0005B6803F48013002B03D0BA693B691343B8
:1010D000BB611C4ABB6993601A4BDB68BB613B690F
:1010E000DB43BA691340BB613B685B6803F40013E0
:1010F000002B03D0BA693B691343BB61114ABB693A
:10110000D360FB690133FB61FB690F2B7FF690AE67
:1011100000BF2437BD465DF8047B704700380240AD
:101120000038014000000240000402400008024074
:10113000000C02400010024000140240001802405F
:10114000001C0240003C014080B485B000AF7860D4
:101150000B467B807B681A697B881340002B02D08A
:101160000123FB7301E00023FB73FB7B184614375C
:10117000BD465DF8047B704780B582B000AF034682
:10118000FB80084B5A69FB881340002B06D0054AA8
:10119000FB885361FB881846FFF718FB00BF083730
:1011A000BD4680BD003C014080B586B000AF786090
:1011B0007B68002B01D1012364E27B681B6803F08C
:1011C0000103002B75D0A34B9B6803F00C03042B89
:1011D0000CD0A04B9B6803F00C03082B12D19D4B45
:1011E0005B6803F48003B3F5800F0BD1994B1B6848
:1011F00003F40033002B5BD07B685B68002B57D176
:1012000001233FE27B685B68B3F5803F06D1914ADA
:10121000904B1B6843F4803313601DE07B685B6870
:10122000B3F5A02F0CD18B4A8A4B1B6843F4802363
:101230001360884A874B1B6843F4803313600BE0CC
:10124000844A844B1B6823F480331360814A814BAA
:101250001B6823F4802313607B685B68002B13D02A
:10126000FFF7BCFC386108E0FFF7B8FC02463B69B9
:10127000D31A642B01D9032304E2764B1B6803F4D1
:101280000033002BF0D014E0FFF7A8FC386108E031
:10129000FFF7A4FC02463B69D31A642B01D9032350
:1012A000F0E16C4B1B6803F40033002BF0D100E03D
:1012B00000BF7B681B6803F00203002B63D0654B03
:1012C0009B6803F00C03002B0BD0624B9B6803F070
:1012D0000C03082B1CD15F4B5B6803F48003002BCD
:1012E00016D15C4B1B6803F00203002B05D07B6812
:1012F000DB68012B01D00123C4E15649554B1B6823
:1013000023F0F8027B681B69DB0013430B603AE0B3
:101310007B68DB68002B20D04F4B01221A60FFF75F
:101320005DFC386108E0FFF759FC02463B69D31ABF
:10133000022B01D90323A5E1464B1B6803F00203EE
:10134000002BF0D04349434B1B6823F0F8027B6825
:101350001B69DB0013430B6015E03F4B00221A6052
:10136000FFF73CFC386108E0FFF738FC02463B69B8
:10137000D31A022B01D9032384E1364B1B6803F0F7
:101380000203002BF0D17B681B6803F00803002BDD
:1013900030D07B685B69002B16D0304B01221A607D
:1013A000FFF71CFC386108E0FFF718FC02463B69B8
:1013B000D31A022B01D9032364E1264B5B6F03F0A0
:1013C0000203002BF0D015E0244B00221A60FFF737
:1013D00005FC386108E0FFF701FC02463B69D31ABF
:1013E000022B01D903234DE11A4B5B6F03F002037B
:1013F000002BF0D17B681B6803F00403002B00F086
:10140000A0800023FB75134B1B6C03F08053002B53
:101410000FD10023BB600F4A0E4B1B6C43F080536F
:1014200013640C4B1B6C03F08053BB60BB6801233F
:10143000FB750B4B1B6803F48073002B21D1084A0A
:10144000074B1B6843F480731360FFF7C7FB3861D9
:1014500011E000BF0038024000004742800E4742C2
:1014600000700040FFF7BAFB02463B69D31A022B1B
:1014700001D9032306E1854B1B6803F48073002B1D
:10148000F0D07B689B68012B06D1814A804B1B6F93
:1014900043F0010313671CE07B689B68052B0CD1AC
:1014A0007B4A7B4B1B6F43F004031367784A784BEE
:1014B0001B6F43F0010313670BE0754A744B1B6FFE
:1014C00023F001031367724A714B1B6F23F004036F
:1014D00013677B689B68002B15D0FFF77FFB386193
:1014E0000AE0FFF77BFB02463B69D31A41F28832E0
:1014F000934201D90323C5E0654B1B6F03F0020340
:10150000002BEED014E0FFF769FB38610AE0FFF72B
:1015100065FB02463B69D31A41F28832934201D9F6
:101520000323AFE05A4B1B6F03F00203002BEED1F5
:10153000FB7D012B05D1564A554B1B6C23F0805384
:1015400013647B689B69002B00F09B80504B9B6869
:1015500003F00C03082B5CD07B689B69022B41D104
:101560004C4B00221A60FFF739FB386108E0FFF7A7
:1015700035FB02463B69D31A022B01D9032381E0D4
:10158000434B1B6803F00073002BF0D140497B688C
:10159000DA697B681B6A1A437B685B6A9B011A43A2
:1015A0007B689B6A5B08013B1B041A437B68DB6A10
:1015B0001B0613434B60374B01221A60FFF70EFBEB
:1015C000386108E0FFF70AFB02463B69D31A022B99
:1015D00001D9032356E02E4B1B6803F00073002B48
:1015E000F0D04EE02B4B00221A60FFF7F7FA38617B
:1015F00008E0FFF7F3FA02463B69D31A022B01D940
:1016000003233FE0224B1B6803F00073002BF0D153
:1016100037E07B689B69012B01D1012332E01C4B31
:101620005B68FB607B689B69012B28D0FB6803F437
:1016300080027B68DB699A4221D1FB6803F03F029C
:101640007B681B6A9A421AD1FA6847F6C073134046
:101650007A68526A9201934211D1FB6803F44032D6
:101660007B689B6A5B08013B1B049A4207D1FB68BD
:1016700003F070627B68DB6A1B069A4201D001238B
:1016800000E0002318461837BD4680BD00700040BA
:10169000003802406000474280B584B000AF7860F7
:1016A00039607B68002B01D10123CCE0684B1B68BB
:1016B00003F007023B689A420CD2654B3A68D2B2FB
:1016C0001A70634B1B6803F007023B689A4201D013
:1016D0000123B8E07B681B6803F00203002B20D0D5
:1016E0007B681B6803F00403002B05D0594A594B53
:1016F0009B6843F4E05393607B681B6803F0080326
:10170000002B05D0534A534B9B6843F460439360CE
:101710005049504B9B6823F0F0027B689B68134351
:101720008B607B681B6803F00103002B44D07B684F
:101730005B68012B07D1474B1B6803F40033002B78
:1017400019D101237FE07B685B68022B03D07B68A3
:101750005B68032B07D13F4B1B6803F00073002B22
:1017600009D101236FE03B4B1B6803F00203002B00
:1017700001D1012367E03749364B9B6823F0030210
:101780007B685B6813438B60FFF728FAF8600AE018
:10179000FFF724FA0246FB68D31A41F288329342DB
:1017A00001D903234FE02B4B9B6803F00C027B68AD
:1017B0005B689B009A42EBD1254B1B6803F0070244
:1017C0003B689A420CD9224B3A68D2B21A70204B2D
:1017D0001B6803F007023B689A4201D0012332E004
:1017E0007B681B6803F00403002B08D01949194BD0
:1017F0009B6823F4E0527B68DB6813438B607B6853
:101800001B6803F00803002B09D01249114B9B6899
:1018100023F460427B681B69DB0013438B6000F09C
:1018200021F801460B4B9B681B0903F00F030A4A82
:10183000D35C21FA03F3094A1360094B1B6818466D
:10184000FFF788F9002318461037BD4680BD00BF5A
:10185000003C0240003802405C32000800000020DA
:10186000040000202DE9F04F87B000AF0022FA609D
:1018700000227A610022BA6000223A61514A9268DD
:1018800002F00C02042A07D0082A08D0002A40F0EF
:1018900090804D4B3B618FE04C4B3B618CE0494A63
:1018A000526802F03F02FA60464A526802F480022F
:1018B000002A23D0434B5B689B094FF0000440F2A1
:1018C000FF114FF0000203EA010304EA02043F4A59
:1018D00002FB04F1002202FB03F20A443B49A3FB92
:1018E000010153181946FB684FF000041A462346BD
:1018F000FEF7BEFC03460C467B614CE0314A526861
:10190000920911464FF0000240F2FF154FF0000619
:1019100005EA010506EA0206294632464FEA421B5D
:101920004BEAD16B4FEA411A51465A46AA46B34692
:1019300055465E464D1B62EB06062946324694012B
:1019400044EA91648B015B1A64EB02044FEAC40918
:1019500049EA53794FEAC30843464C4655465E462A
:10196000ED1846EB04062B463446A2027A607A68EC
:1019700042EA93527A609B023B6097E8180018464F
:101980002146FB684FF000041A462346FEF770FC20
:1019900003460C467B610B4B5B681B0C03F0030397
:1019A00001335B00BB607A69BB68B2FBF3F33B6158
:1019B00002E0054B3B6100BF3B6918461C37BD4642
:1019C000BDE8F08F003802400024F40040787D012B
:1019D00080B400AF034B1B681846BD465DF8047B1E
:1019E000704700BF0000002080B500AFFFF7F0FF98
:1019F0000146054B9B689B0A03F00703034AD35C2F
:101A000021FA03F3184680BD003802406C3200080A
:101A100080B500AFFFF7DCFF0146054B9B685B0B11
:101A200003F00703034AD35C21FA03F3184680BD91
:101A3000003802406C32000880B582B000AF786098
:101A40007B68002B01D1012341E07B6893F83D3096
:101A5000DBB2002B06D17B68002283F83C2078683B
:101A6000FEF736FF7B68022283F83D207B681A6808
:101A70007B6804331946104600F0B4FA7B680122F3
:101A800083F846207B68012283F83E207B68012290
:101A900083F83F207B68012283F840207B68012285
:101AA00083F841207B68012283F842207B68012271
:101AB00083F843207B68012283F844207B6801225D
:101AC00083F845207B68012283F83D2000231846D7
:101AD0000837BD4680BD000080B485B000AF786097
:101AE0007B6893F83D30DBB2012B01D001234EE03F
:101AF0007B68022283F83D207B681B687A68126845
:101B0000D26842F00102DA607B681B68234A934284
:101B100022D07B681B68B3F1804F1DD07B681B68A7
:101B20001F4A934218D07B681B681E4A934213D009
:101B30007B681B681C4A93420ED07B681B681B4A5B
:101B4000934209D07B681B68194A934204D07B6892
:101B50001B68184A934211D17B681B689B6803F08D
:101B60000703FB60FB68062B10D07B681B687A6854
:101B70001268126842F001021A6007E07B681B6875
:101B80007A681268126842F001021A60002318464F
:101B90001437BD465DF8047B704700BF000001406C
:101BA0000004004000080040000C00400004014018
:101BB000004001400018004080B483B000AF78605E
:101BC0007B681B687A681268D26822F00102DA60CA
:101BD0007B681B681A6A41F211131340002B0FD166
:101BE0007B681B681A6A40F244431340002B07D1FC
:101BF0007B681B687A681268126822F001021A601A
:101C00007B68012283F83D20002318460C37BD462F
:101C10005DF8047B704780B582B000AF78607B6868
:101C20001B681B6903F00203022B22D17B681B682F
:101C3000DB6803F00203022B1BD17B681B686FF08B
:101C400002021A617B6801221A777B681B689B6914
:101C500003F00303002B03D0786800F0A5F905E03A
:101C6000786800F097F9786800F0A8F97B6800229E
:101C70001A777B681B681B6903F00403042B22D1CD
:101C80007B681B68DB6803F00403042B1BD17B68B3
:101C90001B686FF004021A617B6802221A777B6866
:101CA0001B689B6903F44073002B03D0786800F035
:101CB0007BF905E0786800F06DF9786800F07EF94E
:101CC0007B6800221A777B681B681B6903F0080396
:101CD000082B22D17B681B68DB6803F00803082B04
:101CE0001BD17B681B686FF008021A617B680422B5
:101CF0001A777B681B68DB6903F00303002B03D0B2
:101D0000786800F051F905E0786800F043F97868E8
:101D100000F054F97B6800221A777B681B681B6906
:101D200003F01003102B22D17B681B68DB6803F0E3
:101D30001003102B1BD17B681B686FF010021A6117
:101D40007B6808221A777B681B68DB6903F44073A1
:101D5000002B03D0786800F027F905E0786800F0E0
:101D600019F9786800F02AF97B6800221A777B68F5
:101D70001B681B6903F00103012B0ED17B681B68F4
:101D8000DB6803F00103012B07D17B681B686FF050
:101D900001021A617868FEF733FD7B681B681B69D6
:101DA00003F08003802B0ED17B681B68DB6803F097
:101DB0008003802B07D17B681B686FF080021A615B
:101DC000786800F0CFFA7B681B681B6903F040035A
:101DD000402B0ED17B681B68DB6803F04003402B6F
:101DE00007D17B681B686FF040021A61786800F0C9
:101DF000EFF87B681B681B6903F02003202B0ED1D2
:101E00007B681B68DB6803F02003202B07D17B680D
:101E10001B686FF020021A61786800F099FA00BF21
:101E20000837BD4680BD80B584B000AF78603960AA
:101E30007B6893F83C30012B01D10223A6E07B683C
:101E4000012283F83C207B68022283F83D207B68D6
:101E50001B689B68FB60FB6823F07703FB60FB68F3
:101E600023F47F43FB607B681B68FA689A603B68D9
:101E70001B68402B67D0402B0BD8102B73D0102B36
:101E800002D8002B6FD078E0202B6CD0302B6AD09A
:101E900073E0702B0DD0702B04D8502B33D0602BF7
:101EA00041D06AE0B3F5805F66D0B3F5005F17D02C
:101EB00063E07B6818683B6899683B685A683B68D0
:101EC000DB6800F0A9F97B681B689B68FB60FB6816
:101ED00043F07703FB607B681B68FA689A604CE00C
:101EE0007B6818683B6899683B685A683B68DB68A0
:101EF00000F092F97B681B687A681268926842F475
:101F000080429A6039E07B6818683B6859683B6892
:101F1000DB681A4600F006F97B681B6850211846FA
:101F200000F05FF929E07B6818683B6859683B68F6
:101F3000DB681A4600F025F97B681B6860211846AB
:101F400000F04FF919E07B6818683B6859683B68F6
:101F5000DB681A4600F0E6F87B681B6840211846EB
:101F600000F03FF909E07B681A683B681B68194676
:101F7000104600F036F900E000BF7B68012283F8CC
:101F80003D207B68002283F83C2000231846103750
:101F9000BD4680BD80B483B000AF786000BF0C3711
:101FA000BD465DF8047B704780B483B000AF7860B5
:101FB00000BF0C37BD465DF8047B704780B483B02A
:101FC00000AF786000BF0C37BD465DF8047B7047FA
:101FD00080B483B000AF786000BF0C37BD465DF8B9
:101FE000047B704780B485B000AF786039607B684F
:101FF0001B68FB607B68404A934213D07B68B3F157
:10200000804F0FD07B683D4A93420BD07B683C4A9F
:10201000934207D07B683B4A934203D07B683A4A9D
:10202000934208D1FB6823F07003FB603B685B6858
:10203000FA681343FB607B682F4A93422BD07B687E
:10204000B3F1804F27D07B682C4A934223D07B6822
:102050002B4A93421FD07B682A4A93421BD07B684D
:10206000294A934217D07B68284A934213D07B6851
:10207000274A93420FD07B68264A93420BD07B6855
:10208000254A934207D07B68244A934203D07B6859
:10209000234A934208D1FB6823F44073FB603B68FA
:1020A000DB68FA681343FB60FB6823F080023B683F
:1020B0005B691343FB607B68FA681A603B689A6847
:1020C0007B68DA623B681A687B689A627B680A4AB6
:1020D000934203D07B680C4A934203D13B681A6950
:1020E0007B681A637B6801225A6100BF1437BD46C2
:1020F0005DF8047B704700BF000001400004004011
:1021000000080040000C0040000401400040014075
:10211000004401400048014000180040001C0040FD
:102120000020004080B487B000AFF860B9607A60EA
:10213000FB681B6A7B61FB681B6A23F00102FB687A
:102140001A62FB689B693B613B6923F0F0033B61CA
:102150007B681B013A6913433B617B6923F00A03E7
:102160007B617A69BB6813437B61FB683A699A615A
:10217000FB687A691A6200BF1C37BD465DF8047BB4
:10218000704780B487B000AFF860B9607A60FB68D0
:102190001B6A23F01002FB681A62FB689B697B6173
:1021A000FB681B6A3B617B6923F470437B617B683E
:1021B0001B037A6913437B613B6923F0A0033B61F6
:1021C000BB681B013A6913433B61FB687A699A61FA
:1021D000FB683A691A6200BF1C37BD465DF8047B94
:1021E000704780B485B000AF786039607B689B68C9
:1021F000FB60FB6823F07003FB603A68FB681343E5
:1022000043F00703FB607B68FA689A6000BF1437ED
:10221000BD465DF8047B704780B487B000AFF860BE
:10222000B9607A603B60FB689B687B617B6923F4E3
:102230007F437B613B681A027B681A43BB68134388
:102240007A6913437B61FB687A699A6000BF1C3727
:10225000BD465DF8047B704780B485B000AF786000
:1022600039607B6893F83C30012B01D102235AE09E
:102270007B68012283F83C207B68022283F83D20A2
:102280007B681B685B68FB607B681B689B68BB6046
:10229000FB6823F07003FB603B681B68FA6813431C
:1022A000FB607B681B68FA685A607B681B68214A80
:1022B000934222D07B681B68B3F1804F1DD07B68AE
:1022C0001B681D4A934218D07B681B681B4A9342C7
:1022D00013D07B681B681A4A93420ED07B681B6838
:1022E000184A934209D07B681B68174A934204D06E
:1022F0007B681B68154A93420CD1BB6823F08003AE
:10230000BB603B685B68BA681343BB607B681B6853
:10231000BA689A607B68012283F83D207B680022BE
:1023200083F83C20002318461437BD465DF8047B33
:10233000704700BF0000014000040040000800405A
:10234000000C004000040140004001400018004023
:1023500080B483B000AF786000BF0C37BD465DF835
:10236000047B704780B483B000AF786000BF0C3747
:10237000BD465DF8047B704780B582B000AF7860E1
:102380007B68002B01D101233FE07B6893F83D304F
:10239000DBB2002B06D17B68002283F83C207868F2
:1023A000FEF7D6FA7B68242283F83D207B681B6801
:1023B0007A681268D26822F40052DA60786800F015
:1023C00003F97B681B687A681268126922F49042EC
:1023D0001A617B681B687A681268526922F02A02C7
:1023E0005A617B681B687A681268D26842F40052AE
:1023F000DA607B6800221A647B68202283F83D2023
:102400007B68202283F83E20002318460837BD460B
:1024100080BD80B58AB002AFF860B9603B601346FA
:10242000FB8000237B61FB6893F83D30DBB2202BFF
:102430007BD1BB68002B02D0FB88002B01D101238C
:1024400074E0FB6893F83C30012B01D102236DE06E
:10245000FB68012283F83C20FB6800221A64FB68B9
:10246000212283F83D20FEF7B9FB7861FB68FA88EA
:102470009A84FB68FA88DA84FB689B68B3F5805F0E
:1024800008D1FB681B69002B04D10023FB61BB68EA
:10249000BB6103E0BB68FB610023BB61FB680022FA
:1024A00083F83C2029E03B6800937B69002280216F
:1024B000F86800F03FF80346002B01D0032335E015
:1024C000FB69002B0AD1FB681B68BA691288C2F34A
:1024D00008025A60BB690233BB6107E0FB681B68F6
:1024E000FA6912785A60FB690133FB61FB68DB8C87
:1024F0009BB2013B9AB2FB68DA84FB68DB8C9BB22F
:10250000002BD0D13B6800937B6900224021F86802
:1025100000F010F80346002B01D0032306E0FB680F
:10252000202283F83D20002300E0022318462037B4
:10253000BD4680BD80B584B000AFF860B9603B6037
:102540001346FB712CE0BB69B3F1FF3F28D0BB6998
:10255000002B07D0FEF742FB02463B68D21ABB694C
:102560009A421DD9FB681B68FA681268D26822F487
:10257000D072DA60FB681B68FA681268526922F050
:1025800001025A61FB68202283F83D20FB6820226B
:1025900083F83E20FB68002283F83C2003230FE0F1
:1025A000FB681B681A68BB681A40BB689A420CBF7C
:1025B00001230023DBB21A46FB799A42C3D00023E1
:1025C00018461037BD4680BD2DE9F04F91B000AFE1
:1025D00078637B6B19687B6B1B681B6923F4405223
:1025E0007B6BDB6813430B617B6B9A687B6B1B69AE
:1025F0001A437B6B5B691A437B6BDB691343BB63D9
:102600007B6B19687B6B1B68DB6823F4164222F036
:102610000C02BB6B1343CB607B6B19687B6B1B6835
:102620005B6923F440727B6B9B6913434B617B6B4B
:102630001A68BA4B9A4204D07B6B1A68B84B9A421C
:1026400003D1FFF7E5F9F86302E0FFF7CDF9F8638E
:102650007B6BDB69B3F5004F40F0A7807B6B1A689A
:10266000BA62FB6B19464FF000020B461446DB18AA
:1026700044EB04045B1844EB0204E00078617869E1
:1026800040EA53707861DB003B61D7E904345D18A0
:1026900044EB0206284631467B6B5B684FF0000432
:1026A000DB1844EB04041A462346FDF7E1FD03461C
:1026B0000C461A469B4BA3FB02235B091E01FB6BD6
:1026C00019464FF000020B461446DB1844EB040495
:1026D0005B1844EB02044FEAC40B4BEA537B4FEA0E
:1026E000C30A53465C4613EB010A44EB020B504607
:1026F00059467B6B5B684FF00004DB1844EB040425
:102700001A462346FDF7B4FD03460C461A46854B90
:10271000A3FB02135B09642101FB03F3D31ADB0063
:102720003233804AA2FB03235B095B0003F4F87396
:102730001E44FB6B19464FF000020B461446DB1893
:1027400044EB04045B1844EB02044FEAC40949EA71
:1027500053794FEAC30843464C4613EB010844EB58
:102760000209404649467B6B5B684FF00004DB186A
:1027700044EB04041A462346FDF77AFD03460C4653
:102780001A46684BA3FB02135B09642101FB03F3A8
:10279000D31ADB003233634AA2FB03235B0903F045
:1027A00007033344BA6A9360B3E07B6B1B683B61F9
:1027B000FB6B19464FF000020B461446DB1844EB46
:1027C00004045B1844EB0204E60046EA5376DD009D
:1027D0002B4634465D1844EB0206284631467B6B97
:1027E0005B684FF00004A500FD62FD6A45EA937541
:1027F000FD629C00BC62D7E90A23FDF739FD034660
:102800000C461A46474BA3FB02135B091D01FB6BE9
:1028100019464FF000020B461446DB1844EB040443
:102820005B1844EB0204E000F860F86840EA53707B
:10283000F860D800B860D7E9023413EB010844EB24
:102840000209404649467B6B5B684FF00004A600D6
:102850007E627E6A46EA93767E629C003C62D7E99D
:102860000823FDF705FD03460C461A462D4BA3FB36
:1028700002135B09642101FB03F3D31A1B013233FA
:10288000284AA2FB03135B0903F0F0031D44FB6B12
:1028900019464FF000020B461446DB1844EB0404C3
:1028A0005B1844EB0204E0007860786840EA5370FB
:1028B0007860D800386097E8180013EB010844EB03
:1028C0000209404649467B6B5B684FF00004A60056
:1028D000FE61FE6946EA9376FE619C00BC61D7E921
:1028E0000623FDF7C5FC03460C461A460D4BA3FB19
:1028F00002135B09642101FB03F3D31A1B0132337A
:10290000084AA2FB03135B0903F00F032B443A6947
:10291000936000BF4437BD46BDE8F08F0010014012
:10292000001401401F85EB51DFF834D00D480E49EB
:102930000E4A002302E0D458C4500433C4188C4219
:10294000F9D30B4A0B4C002301E013600432A2427E
:10295000FBD3FEF7CBF800F017F8FDF711FE704738
:10296000000002200000002070000020B8320008A3
:10297000700000202C010020FEE70000014B1868C9
:10298000704700BF0C00002070B50D4E0D4CA41B0D
:10299000A4100025A54209D10B4E0C4C00F04EFCB2
:1029A000A41BA4100025A54205D170BD56F8253002
:1029B00098470135EEE756F8253098470135F2E79C
:1029C000B0320008B0320008B0320008B43200085B
:1029D00002440346934200D1704703F8011BF9E714
:1029E0000CB430B5174B0C1E9DB01D6808DA8B2354
:1029F0002B604FF0FF301DB0BDE8304002B0704793
:102A00004FF40273ADF8143014BF04F1FF332346C2
:102A1000049307934FF6FF7302900690ADF81630BB
:102A2000209A21AB02A92846019300F069F8431CC3
:102A3000BCBF8B232B60002CDDD0029B00221A70C0
:102A4000D9E700BF0C0000202DE9F0478E689E42B8
:102A500082460C469146984635D88A8912F4906F82
:102A600031D0256809696F1A6569022305EB4505B0
:102A700095FBF3F508F101033B449D4238BF1D4629
:102A8000530531D5294600F039FB064650B90C23D1
:102A9000CAF80030A38943F04003A3814FF0FF3010
:102AA000BDE8F0873A46216900F0B4FAA38923F41F
:102AB000906343F08003A381266165613E44ED1B72
:102AC0002660A5604646464528BF464632464946EA
:102AD000206800F0AAFAA3689B1BA36023681E4429
:102AE00026600020BDE8F0872A4600F065FB064618
:102AF0000028E1D12169504600F0B2FAC7E7000092
:102B00002DE9F04F9DB0804603938B891C060D463E
:102B100016460FD50B696BB9402100F0EFFA28601B
:102B2000286128B90C23C8F800304FF0FF30C5E009
:102B300040236B610023099320238DF82930302333
:102B40008DF82A304FF0010B37463C4614F8013B14
:102B5000002B3CD1B7EB060A0BD053463246294630
:102B60004046FFF771FF013000F0A380099B5344FA
:102B700009933B78002B00F09C8000234FF0FF323C
:102B800004930793059206938DF853301A93052208
:102B900021785048FDF71CFB671C049BD8B9D90667
:102BA00044BF20228DF853201A0744BF2B228DF8F2
:102BB000532022782A2A16D0079A00210A20274675
:102BC00001343B78303B092B51D9C9B111E0252B99
:102BD000C0D02746B9E73F4A801A0BFA00F01843E5
:102BE00004903C46D3E7039A111D12680391002A12
:102BF00001DB079204E0524243F002030792049380
:102C00003B782E2B0ED17B782A2B07F1010132D194
:102C1000039B1A1D1B680392002BB8BF4FF0FF33B4
:102C2000023705932C4C397803222046FDF7D0FA61
:102C300038B14023001B03FA00F0049B03430493C4
:102C40000137397825488DF8281006227E1CFDF7BB
:102C5000BFFA002835D0224BFBB9039B073323F082
:102C6000070308330393099B4B4409936CE700FB6C
:102C700002320121A3E70023059318460A240F46D8
:102C800001313A78303A092A03D9002BCAD005908D
:102C9000C8E704FB00200123F1E703AB00932A46B9
:102CA000104B04A94046AFF30080B0F1FF3F8146CE
:102CB000D9D1AB895B063FF538AF09981DB0BDE8A7
:102CC000F08F03AB00932A46064B04A9404600F060
:102CD00081F8EAE7743200087A3200087E32000890
:102CE00000000000492A00082DE9F04791461F46E0
:102CF0008A680B69DDF820809342B8BF1346C9F893
:102D0000003091F8432006460C4612B10133C9F851
:102D100000302368990642BFD9F800300233C9F861
:102D20000030256815F0060507D104F1190AE3689B
:102D3000D9F800209B1A9D4229DB94F84330226881
:102D4000003318BF012392062ED404F14302394602
:102D50003046C047013021D02368E568D9F800200B
:102D600003F00603042B08BFAD1AA36822690CBF49
:102D700025EAE57500259342C4BF9B1AED184FF074
:102D800000091A344D451BD10020BDE8F08701230E
:102D9000524639463046C047013003D14FF0FF302C
:102DA000BDE8F0870135C2E7E1185A1C302081F8F0
:102DB0004300224494F8451082F843100233C4E7DC
:102DC0000123224639463046C0470130E6D009F19A
:102DD0000109D7E72DE9F04317460A7E85B06E2A30
:102DE000984606460C460C9B01F1430E00F0BC8051
:102DF0001AD8632A2ED00AD8002A00F0C880582A90
:102E000000F08A8004F1420584F842202AE0642A16
:102E100001D0692AF6D121681A6811F0800F23D0F9
:102E2000111D1960136827E0732A00F0B48008D8D8
:102E30006F2A2AD0702AE5D10A6842F020020A607F
:102E400003E0752A21D0782ADCD1782284F8452045
:102E50006E4964E01A6801F14205111D196013689A
:102E600084F842300123A3E011F0400F02F1040185
:102E70001960D7D0B2F90030002B03DA2D225B4263
:102E800084F8432062490A2217E02068196810F08C
:102E9000800F03D0081D18600B6806E010F0400F8B
:102EA00001F104001860F7D00B8859496F2A14BF4C
:102EB0000A220822002084F843006568A560002DDE
:102EC000C0F29C80206820F004002060002B3FD1DD
:102ED000002D40F095807546082A0BD12368DA074B
:102EE00008D5236962689A42DEBF302305F8013CA9
:102EF00005F1FF35AEEB05032361CDF800803B46BD
:102F000003AA21463046FFF7EFFE013055D14FF0BE
:102F1000FF3005B0BDE8F08381F845203C492268C8
:102F2000186812F0800F00F104051D6001D00368DD
:102F300002E05506FBD50388D00744BF42F02002CB
:102F400022601BB9226822F0200222601022B1E721
:102F50007546B3FBF2F002FB1033CB5C05F8013D84
:102F600003460028F5D1B7E708681A68496910F0E8
:102F7000800F04D0101D18601368196007E010F06E
:102F8000400F02F1040018601368F6D01980002386
:102F900023617546B1E71A68111D196015686268EA
:102FA00000212846FDF714F908B1401B60606368F2
:102FB0002361002384F843309FE723692A4639467A
:102FC0003046C0470130A2D023689B0707D50025B3
:102FD00004F11909E368039A9B1A9D4205DBE06836
:102FE000039B9842B8BF184693E701234A463946E7
:102FF0003046C04701308AD00135EBE7002BA7D11E
:103000000B7884F8423004F1420565E796320008F7
:103010008532000810B5431E0A44914200D110BD0C
:1030200011F8014B03F8014FF7E7884210B501EBA7
:10303000020303D8421E99420CD110BD9842F9D226
:103040008118D21AD34200D110BD13F8014D01F8F6
:10305000014DF7E711F8014B02F8014FEBE70000D3
:1030600038B50546002945D051F8043C0C1F002B0B
:10307000B8BFE41800F0D6F81F4A1368104633B9F9
:10308000636014602846BDE8384000F0CCB8A34225
:103090000CD921686218934204BF1A685B686360A8
:1030A00004BF521822600460ECE713465A680AB164
:1030B000A242FAD919685818A0420BD120680144DD
:1030C000581882421960DDD1106852685A60014474
:1030D0001960D7E702D90C232B60D3E720682118A9
:1030E0008A4204BF11685268626004BF09182160F7
:1030F0005C60C7E738BD00BF9000002070B5CD1CF4
:1031000025F0030508350C2D38BF0C25002D06468B
:1031100001DBA94203D90C233360002070BD00F00D
:1031200081F8234A1468214691B9224C23681BB9BF
:10313000304600F067F820602946304600F062F81B
:10314000431C26D10C233360304600F06CF8E4E7D2
:103150000B685B1B1AD40B2B0FD90B60CD50CC180E
:10316000304600F060F804F10B00231D20F007004A
:10317000C31A1BD05A42E25070BD8C420DBF636827
:103180004B686360136018BF0C46E9E70C4649685A
:10319000CAE7C41C24F00304A04205D0211A30461B
:1031A00000F030F80130CDD02560D9E770BD00BF08
:1031B0009000002094000020F8B5074614460E4603
:1031C00021B91146BDE8F840FFF798BF22B9FFF7D3
:1031D00047FF25462846F8BD00F026F884420FD95F
:1031E00021463846FFF78AFF05460028F2D03146CF
:1031F0002246FFF70FFF31463846FFF731FFE9E778
:103200003546E7E738B5064C0023054608462360F7
:10321000FDF740FC431C02D1236803B12B6038BD8D
:10322000280100207047704751F8040C0028A0F1D5
:103230000400BCBF0B58C01870470000F8B500BFB1
:10324000F8BC08BC9E467047F8B500BFF8BC08BC87
:043250009E467047DF
:1032540025647365630A000000000000000000009C
:103264000102030406070809000000000102030428
:10327400232D302B2000686C4C006566674546475B
:1032840000303132333435363738394142434445DE
:10329400460030313233343536373839616263644D
:0432A400656600005B
:0832A800F8CFFF7F01000000D8
:0432B000B50100085C
:0432B400910100087C
:1032B8000024F400100000000100000010000020AD
:1032C80000000000000000000000000000000000F6
:1032D80000000000000000000000000000000000E6
:1032E80000000000000000000000000000000000D6
:1032F80000000000000000000000000000000000C6
:1033080000000000000000000000000000000000B5
:1033180000000000000000000000000000000000A5
:04000005080029299D
:00000001FF
